{
	"_format": "hh-sol-artifact-1",
	"contractName": "StandardPresaleFactory",
	"sourceName": "contracts/factories/presale/StandardPresaleFactory.sol",
	"abi": [
		{
			"inputs": [
				{
					"internalType": "address",
					"name": "factoryManager_",
					"type": "address"
				},
				{
					"internalType": "address",
					"name": "implementation_",
					"type": "address"
				}
			],
			"stateMutability": "nonpayable",
			"type": "constructor"
		},
		{
			"anonymous": false,
			"inputs": [
				{
					"indexed": true,
					"internalType": "address",
					"name": "previousOwner",
					"type": "address"
				},
				{
					"indexed": true,
					"internalType": "address",
					"name": "newOwner",
					"type": "address"
				}
			],
			"name": "OwnershipTransferred",
			"type": "event"
		},
		{
			"anonymous": false,
			"inputs": [
				{
					"indexed": true,
					"internalType": "address",
					"name": "owner",
					"type": "address"
				},
				{
					"indexed": true,
					"internalType": "address",
					"name": "presale",
					"type": "address"
				}
			],
			"name": "PresaleCreated",
			"type": "event"
		},
		{
			"inputs": [
				{
					"internalType": "uint256",
					"name": "tokenPrice_",
					"type": "uint256"
				},
				{
					"internalType": "uint256",
					"name": "totalAmount_",
					"type": "uint256"
				},
				{
					"internalType": "uint256",
					"name": "startTime_",
					"type": "uint256"
				},
				{
					"internalType": "uint256",
					"name": "period_",
					"type": "uint256"
				},
				{
					"internalType": "uint256",
					"name": "minInvestAmount_",
					"type": "uint256"
				},
				{
					"internalType": "uint256",
					"name": "maxInvestAmount_",
					"type": "uint256"
				},
				{
					"internalType": "bool",
					"name": "isNative_",
					"type": "bool"
				}
			],
			"name": "create",
			"outputs": [
				{
					"internalType": "address",
					"name": "presale",
					"type": "address"
				}
			],
			"stateMutability": "payable",
			"type": "function"
		},
		{
			"inputs": [],
			"name": "factoryManager",
			"outputs": [
				{
					"internalType": "address",
					"name": "",
					"type": "address"
				}
			],
			"stateMutability": "view",
			"type": "function"
		},
		{
			"inputs": [],
			"name": "feeTo",
			"outputs": [
				{
					"internalType": "address",
					"name": "",
					"type": "address"
				}
			],
			"stateMutability": "view",
			"type": "function"
		},
		{
			"inputs": [],
			"name": "flatFee",
			"outputs": [
				{
					"internalType": "uint256",
					"name": "",
					"type": "uint256"
				}
			],
			"stateMutability": "view",
			"type": "function"
		},
		{
			"inputs": [],
			"name": "implementation",
			"outputs": [
				{
					"internalType": "address",
					"name": "",
					"type": "address"
				}
			],
			"stateMutability": "view",
			"type": "function"
		},
		{
			"inputs": [],
			"name": "owner",
			"outputs": [
				{
					"internalType": "address",
					"name": "",
					"type": "address"
				}
			],
			"stateMutability": "view",
			"type": "function"
		},
		{
			"inputs": [],
			"name": "renounceOwnership",
			"outputs": [],
			"stateMutability": "nonpayable",
			"type": "function"
		},
		{
			"inputs": [
				{
					"internalType": "address",
					"name": "feeReceivingAddress",
					"type": "address"
				}
			],
			"name": "setFeeTo",
			"outputs": [],
			"stateMutability": "nonpayable",
			"type": "function"
		},
		{
			"inputs": [
				{
					"internalType": "uint256",
					"name": "fee",
					"type": "uint256"
				}
			],
			"name": "setFlatFee",
			"outputs": [],
			"stateMutability": "nonpayable",
			"type": "function"
		},
		{
			"inputs": [
				{
					"internalType": "address",
					"name": "implementation_",
					"type": "address"
				}
			],
			"name": "setImplementation",
			"outputs": [],
			"stateMutability": "nonpayable",
			"type": "function"
		},
		{
			"inputs": [
				{
					"internalType": "address",
					"name": "newOwner",
					"type": "address"
				}
			],
			"name": "transferOwnership",
			"outputs": [],
			"stateMutability": "nonpayable",
			"type": "function"
		}
	],
	"bytecode": "0x60806040523480156200001157600080fd5b506040516200141f3803806200141f83398181016040528101906200003791906200026d565b620000576200004b6200013760201b60201c565b6200013f60201b60201c565b6001808190555081600260006101000a81548173ffffffffffffffffffffffffffffffffffffffff021916908373ffffffffffffffffffffffffffffffffffffffff16021790555080600360006101000a81548173ffffffffffffffffffffffffffffffffffffffff021916908373ffffffffffffffffffffffffffffffffffffffff16021790555033600460006101000a81548173ffffffffffffffffffffffffffffffffffffffff021916908373ffffffffffffffffffffffffffffffffffffffff160217905550662386f26fc100006005819055505050620002b4565b600033905090565b60008060009054906101000a900473ffffffffffffffffffffffffffffffffffffffff169050816000806101000a81548173ffffffffffffffffffffffffffffffffffffffff021916908373ffffffffffffffffffffffffffffffffffffffff1602179055508173ffffffffffffffffffffffffffffffffffffffff168173ffffffffffffffffffffffffffffffffffffffff167f8be0079c531659141344cd1fd0a4f28419497f9722a3daafe3b4186f6b6457e060405160405180910390a35050565b600080fd5b600073ffffffffffffffffffffffffffffffffffffffff82169050919050565b6000620002358262000208565b9050919050565b620002478162000228565b81146200025357600080fd5b50565b60008151905062000267816200023c565b92915050565b6000806040838503121562000287576200028662000203565b5b6000620002978582860162000256565b9250506020620002aa8582860162000256565b9150509250929050565b61115b80620002c46000396000f3fe60806040526004361061009c5760003560e01c80638da5cb5b116100645780638da5cb5b14610162578063a14825441461018d578063d784d426146101bd578063d9eb5947146101e6578063f2fde38b14610211578063f46901ed1461023a5761009c565b8063017e7e58146100a1578063032b5a73146100cc57806323fa495a146100f75780635c60da1b14610120578063715018a61461014b575b600080fd5b3480156100ad57600080fd5b506100b6610263565b6040516100c39190610a95565b60405180910390f35b3480156100d857600080fd5b506100e1610289565b6040516100ee9190610a95565b60405180910390f35b34801561010357600080fd5b5061011e60048036038101906101199190610aeb565b6102af565b005b34801561012c57600080fd5b506101356102c1565b6040516101429190610a95565b60405180910390f35b34801561015757600080fd5b506101606102e7565b005b34801561016e57600080fd5b506101776102fb565b6040516101849190610a95565b60405180910390f35b6101a760048036038101906101a29190610b50565b610324565b6040516101b49190610a95565b60405180910390f35b3480156101c957600080fd5b506101e460048036038101906101df9190610c1e565b610529565b005b3480156101f257600080fd5b506101fb610575565b6040516102089190610c5a565b60405180910390f35b34801561021d57600080fd5b5061023860048036038101906102339190610c1e565b61057b565b005b34801561024657600080fd5b50610261600480360381019061025c9190610c1e565b6105fe565b005b600460009054906101000a900473ffffffffffffffffffffffffffffffffffffffff1681565b600260009054906101000a900473ffffffffffffffffffffffffffffffffffffffff1681565b6102b761064a565b8060058190555050565b600360009054906101000a900473ffffffffffffffffffffffffffffffffffffffff1681565b6102ef61064a565b6102f960006106c8565b565b60008060009054906101000a900473ffffffffffffffffffffffffffffffffffffffff16905090565b600060055434101561036b576040517f08c379a000000000000000000000000000000000000000000000000000000000815260040161036290610cd2565b60405180910390fd5b6002600154036103b0576040517f08c379a00000000000000000000000000000000000000000000000000000000081526004016103a790610d3e565b60405180910390fd5b60026001819055506103c061078c565b61040d600554600460009054906101000a900473ffffffffffffffffffffffffffffffffffffffff1673ffffffffffffffffffffffffffffffffffffffff166107db90919063ffffffff16565b610438600360009054906101000a900473ffffffffffffffffffffffffffffffffffffffff166108cf565b90508073ffffffffffffffffffffffffffffffffffffffff166321e7129e338a8a8a8a8a8a8a6040518963ffffffff1660e01b8152600401610481989796959493929190610d6d565b600060405180830381600087803b15801561049b57600080fd5b505af11580156104af573d6000803e3d6000fd5b505050506104bd33826109a3565b8073ffffffffffffffffffffffffffffffffffffffff163373ffffffffffffffffffffffffffffffffffffffff167fcfea6066a7ff70439f7cfe020aea9709cf4b7cb462225660895dfcc5c38716ae60405160405180910390a360018081905550979650505050505050565b61053161064a565b80600360006101000a81548173ffffffffffffffffffffffffffffffffffffffff021916908373ffffffffffffffffffffffffffffffffffffffff16021790555050565b60055481565b61058361064a565b600073ffffffffffffffffffffffffffffffffffffffff168173ffffffffffffffffffffffffffffffffffffffff16036105f2576040517f08c379a00000000000000000000000000000000000000000000000000000000081526004016105e990610e5d565b60405180910390fd5b6105fb816106c8565b50565b61060661064a565b80600460006101000a81548173ffffffffffffffffffffffffffffffffffffffff021916908373ffffffffffffffffffffffffffffffffffffffff16021790555050565b610652610a36565b73ffffffffffffffffffffffffffffffffffffffff166106706102fb565b73ffffffffffffffffffffffffffffffffffffffff16146106c6576040517f08c379a00000000000000000000000000000000000000000000000000000000081526004016106bd90610ec9565b60405180910390fd5b565b60008060009054906101000a900473ffffffffffffffffffffffffffffffffffffffff169050816000806101000a81548173ffffffffffffffffffffffffffffffffffffffff021916908373ffffffffffffffffffffffffffffffffffffffff1602179055508173ffffffffffffffffffffffffffffffffffffffff168173ffffffffffffffffffffffffffffffffffffffff167f8be0079c531659141344cd1fd0a4f28419497f9722a3daafe3b4186f6b6457e060405160405180910390a35050565b60006107a360055434610a3e90919063ffffffff16565b905060008111156107d8576107d7813373ffffffffffffffffffffffffffffffffffffffff166107db90919063ffffffff16565b5b50565b8047101561081e576040517f08c379a000000000000000000000000000000000000000000000000000000000815260040161081590610f35565b60405180910390fd5b60008273ffffffffffffffffffffffffffffffffffffffff168260405161084490610f86565b60006040518083038185875af1925050503d8060008114610881576040519150601f19603f3d011682016040523d82523d6000602084013e610886565b606091505b50509050806108ca576040517f08c379a00000000000000000000000000000000000000000000000000000000081526004016108c19061100d565b60405180910390fd5b505050565b60006040517f3d602d80600a3d3981f3363d3d373d3d3d363d7300000000000000000000000081528260601b60148201527f5af43d82803e903d91602b57fd5bf3000000000000000000000000000000000060288201526037816000f0915050600073ffffffffffffffffffffffffffffffffffffffff168173ffffffffffffffffffffffffffffffffffffffff160361099e576040517f08c379a000000000000000000000000000000000000000000000000000000000815260040161099590611079565b60405180910390fd5b919050565b600260009054906101000a900473ffffffffffffffffffffffffffffffffffffffff1673ffffffffffffffffffffffffffffffffffffffff16631081316283836040518363ffffffff1660e01b8152600401610a00929190611099565b600060405180830381600087803b158015610a1a57600080fd5b505af1158015610a2e573d6000803e3d6000fd5b505050505050565b600033905090565b60008183610a4c91906110f1565b905092915050565b600073ffffffffffffffffffffffffffffffffffffffff82169050919050565b6000610a7f82610a54565b9050919050565b610a8f81610a74565b82525050565b6000602082019050610aaa6000830184610a86565b92915050565b600080fd5b6000819050919050565b610ac881610ab5565b8114610ad357600080fd5b50565b600081359050610ae581610abf565b92915050565b600060208284031215610b0157610b00610ab0565b5b6000610b0f84828501610ad6565b91505092915050565b60008115159050919050565b610b2d81610b18565b8114610b3857600080fd5b50565b600081359050610b4a81610b24565b92915050565b600080600080600080600060e0888a031215610b6f57610b6e610ab0565b5b6000610b7d8a828b01610ad6565b9750506020610b8e8a828b01610ad6565b9650506040610b9f8a828b01610ad6565b9550506060610bb08a828b01610ad6565b9450506080610bc18a828b01610ad6565b93505060a0610bd28a828b01610ad6565b92505060c0610be38a828b01610b3b565b91505092959891949750929550565b610bfb81610a74565b8114610c0657600080fd5b50565b600081359050610c1881610bf2565b92915050565b600060208284031215610c3457610c33610ab0565b5b6000610c4284828501610c09565b91505092915050565b610c5481610ab5565b82525050565b6000602082019050610c6f6000830184610c4b565b92915050565b600082825260208201905092915050565b7f466c617420666565000000000000000000000000000000000000000000000000600082015250565b6000610cbc600883610c75565b9150610cc782610c86565b602082019050919050565b60006020820190508181036000830152610ceb81610caf565b9050919050565b7f5265656e7472616e637947756172643a207265656e7472616e742063616c6c00600082015250565b6000610d28601f83610c75565b9150610d3382610cf2565b602082019050919050565b60006020820190508181036000830152610d5781610d1b565b9050919050565b610d6781610b18565b82525050565b600061010082019050610d83600083018b610a86565b610d90602083018a610c4b565b610d9d6040830189610c4b565b610daa6060830188610c4b565b610db76080830187610c4b565b610dc460a0830186610c4b565b610dd160c0830185610c4b565b610dde60e0830184610d5e565b9998505050505050505050565b7f4f776e61626c653a206e6577206f776e657220697320746865207a65726f206160008201527f6464726573730000000000000000000000000000000000000000000000000000602082015250565b6000610e47602683610c75565b9150610e5282610deb565b604082019050919050565b60006020820190508181036000830152610e7681610e3a565b9050919050565b7f4f776e61626c653a2063616c6c6572206973206e6f7420746865206f776e6572600082015250565b6000610eb3602083610c75565b9150610ebe82610e7d565b602082019050919050565b60006020820190508181036000830152610ee281610ea6565b9050919050565b7f416464726573733a20696e73756666696369656e742062616c616e6365000000600082015250565b6000610f1f601d83610c75565b9150610f2a82610ee9565b602082019050919050565b60006020820190508181036000830152610f4e81610f12565b9050919050565b600081905092915050565b50565b6000610f70600083610f55565b9150610f7b82610f60565b600082019050919050565b6000610f9182610f63565b9150819050919050565b7f416464726573733a20756e61626c6520746f2073656e642076616c75652c207260008201527f6563697069656e74206d61792068617665207265766572746564000000000000602082015250565b6000610ff7603a83610c75565b915061100282610f9b565b604082019050919050565b6000602082019050818103600083015261102681610fea565b9050919050565b7f455243313136373a20637265617465206661696c656400000000000000000000600082015250565b6000611063601683610c75565b915061106e8261102d565b602082019050919050565b6000602082019050818103600083015261109281611056565b9050919050565b60006040820190506110ae6000830185610a86565b6110bb6020830184610a86565b9392505050565b7f4e487b7100000000000000000000000000000000000000000000000000000000600052601160045260246000fd5b60006110fc82610ab5565b915061110783610ab5565b925082820390508181111561111f5761111e6110c2565b5b9291505056fea26469706673582212209deed14e3ebac9830e9435074552644d815f833be8be0271c1b4a1a366b8457364736f6c63430008110033",
	"linkReferences": {},
	"deployedLinkReferences": {}
}